:100000000C942A000C9429010C9429010C942901C8
:100010000C9429010C9429010C9429010C942901B8
:100020000C9429010C9429010C9429010C942901A8
:100030000C9429010C9429010C9429010C94290198
:100040000C9429010C9429010C9429010C94290188
:100050000C94290111241FBECFE5D8E0DEBFCDBF2F
:0C0060000E9436000C941E01F894FFCFA3
:10006C001ABA8FEF87BB84BB81BB88E30E94130154
:10007C008FE00E94130181E00E94130180E80E942E
:10008C0013010E9468008FE19EE40197F1F700C014
:10009C0000000E9492008FE19EE40197F1F700C0EE
:1000AC0000000E94E3008FE19EE40197F1F700C08D
:1000BC0000000E94BC008FE19EE40197F1F700C0A4
:0400CC000000DFCF82
:1000D00081E088BB89B3813039F484E40E94070150
:1000E00086E00E941301089589B3823039F481E4D7
:1000F0000E94070186E00E941301089589B38430AD
:1001000039F48EE40E94070186E00E9413010895ED
:1001100089B3883031F489E40E94070186E00E94A7
:04012000130108952A
:1001240082E088BB89B3813039F485E40E940701F9
:1001340086E00E941301089589B3823039F48CE477
:100144000E94070186E00E941301089589B3843058
:1001540039F481E30E94070186E00E9413010895A7
:1001640089B3883031F482E30E94070186E00E945B
:0401740013010895D6
:1001780088E088BB89B3813021F480EC0E941301A8
:10018800089589B3823039F48AE20E94070186E033
:100198000E941301089589B3843039F48EE20E94D5
:1001A800070186E00E941301089589B3883031F46D
:0E01B80083E20E94070186E00E941301089571
:1001C60084E088BB89B3813039F483E30E94070158
:1001D60086E00E941301089589B3823039F480E2E3
:1001E6000E94070186E00E941301089589B38430B6
:1001F60021F481E00E941301089589B3883019F42F
:0802060080E80E941301089535
:10020E0093E095BB82BB81E085BB8FE39CE90197B0
:08021E00F1F700C00000089593
:1002260092E095BB82BB15BA8FE39CE90197F1F783
:0602360000C00000089565
:10023C00EC010E942E010E942D01CE010E942F0183
:06024C00CE010E942B010F
:040252000C94000008
:040256000E943400CE
:02025A00089505
:02025C00089503
:02025E00089501
:00000001FF
